:020000040000fa
:080000000001040000000000f3
:020000040000fa
:100200008fc321000e7f22000e0188000000000035
:100210000c000700e0b725000100200011000700d6
:10022000000020000000e000020032000000020098
:1002300000000000683e0200000000000040da00fc
:100240000000fe004440a900a09420000000e0004f
:100250000300320000002000a00188004440a800f4
:100260000000060091018800800078000000eb008b
:1002700015003700e280400032a0b4009101ba00be
:10028000e280400032a0b4009102ba00e280400057
:1002900032a0b4000002eb00472bde00f507b200ed
:1002a000602ce10004003a000059eb008301e900f2
:1002b000fdff3e00040037006128e100010032002c
:1002c0000082eb00040007001101ba000200e00008
:1002d000e8ff3a00000006003159ba008301e90046
:1002e0000c0032002159ba008301e90008003200f5
:1002f0000400e00003003a00e280400032a0b400b5
:10030000f5ff370011d9ba008301e900faff3a007e
:100310008100e800e180400032a0b4000000060047
:100320000040da000000fe003200f8009101880071
:100330008002780062004000e08048003549ba0041
:100340003204e0000410a700100032008301e9002d
:100350000e0032002549ba003204e0000410a70064
:100360000a0032008301e900080032000408a300fb
:10037000eeff320015c9ba003204e0000410a700f5
:10038000020032008301e900e8ff3a003200f90080
:10039000000006003200f800910188000008bb0050
:1003a000410424006210e100040032000002200039
:1003b0000010e1000a003a0051042400013b8800cb
:1003c0000500fc0051052000313b8800a10a2000f7
:1003d000313b880061e7a800000000000000000039
:1003e0003200f900000006003200f800600424002a
:1003f000003b8800f2ff37003200f80091018800ce
:1004000041002400013b88000208bb00ecff3700dc
:100410003200f8009101880051002400013b88005f
:10042000030120003218bb008301e900fdff3a0000
:10043000e3ff3700020ab900001bb9000200b80050
:100440008100420081004300000006006022b800e5
:10045000060220000000d0008180d2000482d20079
:100460008582d2000000a0000202520083825a005e
:10047000030031000202420083824a000000a10012
:100480000603e900f3ff3a0000000600881f780029
:10049000000478005001be004000be00040040008f
:1004a000858048000601490087814900009cbe0004
:1004b0000294be000400e1000588e1000690e1001e
:1004c0000798e10002003100680044001008e800cd
:1004d0004f04780000000600f4874700889fbe00a4
:1004e0008a9fbe008c9fbe008e1f78000205be0052
:1004f0000004be00d4b79f00e5b79f00f6b79f0089
:1005000087bf9f000000eb00c0b79f00b0b79f00ff
:10051000a0b79f0090b79f0080b79f000d042000f8
:10052000bfb097004fb09700000140000000e0000e
:100530000f003d004f08de0000007100c0b79f00b3
:100540009e00070001003d0012002000a1000700ee
:1005500001003d0012002000a6000700b1000700c6
:10056000b60007000f004000c8ff07002200370058
:100570004f08de0000067100ccb79f008f00070017
:1005800001003d00120020009200070001003d0024
:100590001200200097000700a20007000fb297008a
:1005a0009fb297002fb39700bfb39700a900070031
:1005b0000000520081805a0002015b0083815b00d1
:1005c00080b79f0091b79f00a2b79f00b3b79f006d
:1005d0000007eb009f0007000020e10001a8e100f8
:1005e00002b0e10003b8e100010031001e0020006c
:1005f0000e005600c0b79f004fb297000400e00005
:100600000700350010002000010020006011b80034
:1006100008047000898470000a0571008b857100e0
:100620008d06e900beff3a000400e00003003d0033
:10063000820007000f00400094ff07004fa89700ba
:100640000000e00004003a000fb497009fb4970048
:100650002fb59700bfb59700940007004f077800ab
:100660004f06be004f05be004f04be004f01b10053
:1006700000000600881f780018002000881f7800fe
:1006800095ff07008f87e9004f04780000000600ff
:10069000801feb0090ff07008f87e9000000060035
:1006a000889fbe008a9fbe008c1f78006e000700e6
:1006b00007003d0073000700e00f5b00e08f5b0068
:1006c00007003d00320007000006eb000400370081
:1006d0003400070002003d002a0007001c00200033
:1006e00072000700e3ff07000203be000002be0025
:1006f0000c00e00001003200220007000400be00f0
:100700000601be004f0678004f05be004f04be0034
:1007100000000600889fbe008a9fbe008c1f7800e4
:100720005100070005003d0056000700e00f5b0088
:10073000e08f5b0006003d00040037001900070051
:1007400003003d006000b8006011b8001000070011
:1007500056000700ceff07000203be000002be00e5
:100760000c00e00001003200060007000400be009b
:100770000601be004f0678004f05be004f04be00c4
:10078000000006006000b8006011b80000003700eb
:1007900004025000858258000603590087835900df
:1007a000000006000006eb00e00f5200e08f5a0048
:1007b000e00f5b00e08f5b0000000600018040005e
:1007c00090b79f000001eb008fb097000100e000a0
:1007d000000006000200700090b79f0001804000fa
:1007e00080b79f000001eb00ffa897000100e00028
:1007f000000006000200700080b79f0001804000ea
:100800006faa9700cf20de0001007000f0af9f00bc
:1008100004024200250007004f18de0000027200ab
:1008200000000600e4af9f000804440089844c00e7
:100830000a054d008b854d00000006003fb2970071
:10084000cfb297005fb39700efb3970000fe2f0081
:10085000000006003fb09700cfb097005fb197004f
:10086000efb19700000006000205be000004be00c4
:10087000e00f5000e08f5800e00f5900e08f590062
:10088000000006006000b8006011b80008045000c5
:10089000898458000a0559008b8559001c002000e6
:1008a000e00f5200e08f5a00000006000800be0072
:1008b0000a01be00000006000002eb000480e70011
:1008c000050037000488e70003003700f0ff2f0021
:1008d000f1ff2700000006000490e7000500370044
:1008e0000498e700030037000000eb008000eb00f5
:1008f00000000600889fbe008a9fbe008c9fbe003d
:100900001800200001f0a700f8ff2f0001c2b90075
:100910000043b900870342000002eb0004b8e7007f
:10092000140037006130e10012003a000800e000d6
:1009300009003c00f6ff2f000000eb000616b8008f
:10094000e0004600e0854e008b054600061eb8001c
:100950008b054600360237000000eb000616b80093
:10096000e0004600e0854e00061eb8008b054600fc
:100970002f02370004b8e70022003a006230e1009d
:1009800020003a000800e00013003c0005002800a9
:10099000f6ff2f004f8ade000516b8006000460003
:1009a00060854e000616b8000a054600e0854e0038
:1009b0000616b8008b054600051eb8008a004600e2
:1009c0008b854e00061eb8008b0546000526b80034
:1009d0008b05460016023700050028004f8ade000e
:1009e0000516b8006000460060854e00051eb80080
:1009f0008a004600e0854e000526b8008b054600bb
:100a00000b0237000700e0002c00320002047800df
:100a100083047800a60a070008027800890278009b
:100a20004fabde004f89de000404b8000506b800b5
:100a30008904460060854e000606b8000a05460097
:100a4000e0854e000606b8008b054600040eb8008f
:100a5000890446000a854e00e0854d00050eb80069
:100a60000a0546008b854e00060eb8008b05460031
:100a70000416b8000a0546008b854e000516b8001e
:100a80008b0546000416b8008b05460004002400c0
:100a90008484440060054d00e0854d004e48de0032
:100aa0004252dd0004007000ce50de00425add00ec
:100ab00084807000ceddde00dd01370002047800a6
:100ac00083047800861f7800000278008102780095
:100ad0000000e00010003a000200280081017800c8
:100ae000e0ff2f00cf80de000218e700a9013700e9
:100af000f2ff270020002000cf80de000218e70070
:100b0000a4013700f0ff2f00f1ff27000001eb00e8
:100b10000218e7009f013700040078008500780084
:100b2000889fbe001800200001f0a30004003900d7
:100b3000f8ff2f0001c2b9000040b9008100420057
:100b4000881f78008181cf000300e00004003a0094
:100b50000118e700030120000081cf00830141005c
:100b6000e28151007018e10005003c007081110025
:100b70000202de008308dd0084807000020037007e
:100b8000708151008200dd000400280081025200c3
:100b90006118e100850034008a9fbe008c9fbe0072
:100ba0000000220006002800050343000625b800c7
:100bb0004f55de00c15ddd000b027500052db8004c
:100bc00000054500e0854d004e55de00c25ddd00ac
:100bd0008b027500e08342000725b8006126b9004a
:100be0008c8545000b027800052db800e185450095
:100bf000c1dade000000240006002800850343005f
:100c00000725b8004230de0000054500e0854d00b4
:100c10004f55de00c15ddd000b027500052db800eb
:100c200000e0230000054500e0854d004f55de0043
:100c3000c15ddd008b027500850343000725b80008
:100c40000000240000054500e0854d004f52de0005
:100c5000415cdd00080272004f5cde00052db8002b
:100c600000054500e0854d004f55de00c15ddd000b
:100c70008b02750085034300043db80008beb9002f
:100c80008c8545004f52de00415cdd000802720099
:100c90004f5cde00052db80000054500e0854d00e5
:100ca0004f55de00c15ddd008b02750085034300fa
:100cb000043db80008beb9008c8545004f52de00e7
:100cc000415cdd00080272004f5cde00052db800bb
:100cd00000054500e0854d004f55de00c15ddd009b
:100ce0008b02750085034300043db80008beb900bf
:100cf0008c8545004f52de00415cdd000802720029
:100d0000cf5ade00120020007018e10004003c0001
:100d1000f08011008110de000310dd0003003700b9
:100d2000f08051008110dd000000eb004f89de00f3
:100d3000820178004fabde00860378000404b8001f
:100d40000506b8008904460060854e000606b80016
:100d50000a054600040eb800890446000a854e00c4
:100d6000050eb8000a0546000416b8000a0546003c
:100d70008b0546004e40de00424add000400700054
:100d8000ce48de004252dd00848070004f06be0077
:100d90004f05be004f04780001c2b9000040b90001
:100da000810042004f04be00fa0037000300e0005b
:100db0007c0034008a9fbe008c9fbe000000220091
:100dc00006002800850343000725b8004f55de00c4
:100dd000c15ddd000b027500052db8000005450062
:100de000e0854d004e55de00c25ddd008b027500d2
:100df000e08342000725b8006126b9008c854500d4
:100e00000b027800052cb80006044400e0844c0076
:100e1000c1cade004100dd00060028008503430052
:100e20000725b8004f55de00c15ddd000b027500df
:100e3000052db80000054500e0854d004f55de004a
:100e4000c15ddd008b027500850343000725b800f6
:100e50004f55de00c15ddd000b027500052db800a9
:100e600000054500e0854d004f55de00c15ddd0009
:100e70008b027500850343000725b8004f52de0042
:100e8000415cdd00080272004f5cde00052db800f9
:100e900000054500e0854d004f55de00c15ddd00d9
:100ea0008b02750085034300043db80008beb900fd
:100eb0008c8545004f52de00415cdd000802720067
:100ec0004f5cde00052db80000054500e0854d00b3
:100ed0004f55de00c15ddd008b02750085034300c8
:100ee000043db80008beb9008c8545004f52de00b5
:100ef000415cdd0008027200cf5ade0012002000c3
:100f00007018e10004003c00f08011008110de0048
:100f10000310dd0003003700f08051008110dd0078
:100f20000000eb004f89de00820178004fabde004d
:100f3000860378000404b8000506b800890446005a
:100f400060854e000606b8000a054600040eb8008b
:100f5000890446000a854e00050eb8000a054600c1
:100f60000416b8000a0546008b0546004e40de0018
:100f7000424add0004007000ce48de004252dd002f
:100f8000848070004f06be004f05be004f047800fd
:100f900001c2b9000040b900810042004f04be0008
:100fa0007c0037008a9fbe008c9fbe00000024009a
:100fb00006002800850343000725b8004f55de00d2
:100fc000c15ddd000b027500052db8000005450070
:100fd000e0854d004f55de00c15ddd008b027500e0
:100fe000850343000725b8004f55de00c15ddd00d5
:100ff0000b027500052db80000054500e0854d0089
:101000004f55de00c15ddd008b0275008503430096
:101010000725b8004f55de00c15ddd000b027500ed
:10102000052db80000054500e0854d004f55de0058
:10103000c15ddd008b027500850343000725b80004
:101040004f55de00c15ddd000b027500052db800b7
:1010500000054500e0854d004f55de00c15ddd0017
:101060008b0275000004eb00850343000725b800e0
:101070004f52de00415cdd00080272004f5cde0072
:10108000052db80000054500e0854d004f55de00f8
:10109000c15ddd008b02750085034300043db8008f
:1010a00008beb9008c8545004f52de00415cdd0072
:1010b000080272004f5cde00052db80000054500f7
:1010c000e0854d004f55de00c15ddd008b027500ef
:1010d00085034300043db80008beb9008c85450077
:1010e0004f52de00415cdd0008027200cf5ade0084
:1010f000120020007018e10004003c00f080110094
:101100008110de000310dd0003003700f080510085
:101110008110dd000000eb004f89de0082017800c5
:101120004fabde00860378000404b8000506b80063
:101130008904460060854e000606b8000a05460090
:10114000040eb800890446000a854e00050eb8005a
:101150000a0546000416b8000a0546008b0546003d
:101160004e40de00424add0004007000ce48de0042
:101170004252dd00848070004f06be004f05be0065
:101180004f04780001c2b9000040b900810042005c
:101190004f04be004f03780004c429000430e1006e
:1011a0000200360061004000e0804800080278003c
:1011b000890278004fabde004f89de000404b800de
:1011c0000506b8008904460060854e000606b80092
:1011d0000a054600e0854e000606b8008b0546006d
:1011e000040eb800890446000a854e00e0854d00d3
:1011f000050eb8000a0546008b854e00060eb800a5
:101200008b0546000416b8000a0546008b854e0083
:101210000516b8008b0546000416b8008b0546007d
:1012200061804400e0004d00e0854d000000370083
:101230000bf0a300070031000b00e00002003a00b1
:1012400001f0a3000b003900f0ff2f00f1ff270091
:1012500008003700f4ff2f000458e10003003a00b3
:10126000040028000408e100020031000000eb0047
:1012700001002800ca0307004f06be004f05be004c
:101280004f04be00000006000002eb000480e700ef
:10129000050037000488e70003003700f0ff2f0047
:1012a000f1ff2700000006000490e700050037006a
:1012b0000498e700030037000000eb008000eb001b
:1012c00000000600889fbe008a9fbe008c9fbe0063
:1012d0001800200001f0a700f8ff2f0001c2b9009c
:1012e0000043b900870342000002eb0004b8e700a6
:1012f000140037006130e10012003a000800e000fd
:1013000009003c00f6ff2f000000eb000616b800b5
:10131000e0004600e0854e008b054600061eb80042
:101320008b054600360237000000eb000616b800b9
:10133000e0004600e0854e00061eb8008b05460022
:101340002f02370004b8e70022003a006230e100c3
:1013500020003a000800e00013003c0005002800cf
:10136000f6ff2f004f8ade000516b8006000460029
:1013700060854e000616b8000a054600e0854e005e
:101380000616b8008b054600051eb8008a00460008
:101390008b854e00061eb8008b0546000526b8005a
:1013a0008b05460016023700050028004f8ade0034
:1013b0000516b8006000460060854e00051eb800a6
:1013c0008a004600e0854e000526b8008b054600e1
:1013d0000b0237000700e0002c0032000204780006
:1013e0008304780032080700080278008902780038
:1013f0004fabde004f89de000404b8000506b800dc
:101400008904460060854e000606b8000a054600bd
:10141000e0854e000606b8008b054600040eb800b5
:10142000890446000a854e00e0854d00050eb8008f
:101430000a0546008b854e00060eb8008b05460057
:101440000416b8000a0546008b854e000516b80044
:101450008b0546000416b8008b05460004002400e6
:101460008484440060054d00e0854d004e48de0058
:101470004252dd0004007000ce50de00425add0012
:1014800084807000ceddde00dd01370002047800cc
:1014900083047800861f78000002780081027800bb
:1014a0000000e00010003a000200280081017800ee
:1014b000e0ff2f00cf80de000218e700a90137000f
:1014c000f2ff270020002000cf80de000218e70096
:1014d000a4013700f0ff2f00f1ff27000001eb000f
:1014e0000218e7009f0137000400780085007800ab
:1014f000889fbe001800200001f0a30004003900fe
:10150000f8ff2f0001c2b9000040b900810042007d
:10151000881f78008181cf000300e00004003a00ba
:101520000118e700030120000081cf008301410082
:10153000e28151007018e10005003c00708111004b
:101540000202de008308dd008480700002003700a4
:10155000708151008200dd000400280081025200e9
:101560006118e100850034008a9fbe008c9fbe0098
:101570000000220006002800050343000625b800ed
:101580004f55de00c15ddd000b027500052db80072
:1015900000054500e0854d004e55de00c25ddd00d2
:1015a0008b027500e08342000725b8006126b90070
:1015b0008c8545000b027800052db800e1854500bb
:1015c000c1dade0000002400060028008503430085
:1015d0000725b8004230de0000054500e0854d00db
:1015e0004f55de00c15ddd000b027500052db80012
:1015f00000e0230000054500e0854d004f55de006a
:10160000c15ddd008b027500850343000725b8002e
:101610000000240000054500e0854d004f52de002b
:10162000415cdd00080272004f5cde00052db80051
:1016300000054500e0854d004f55de00c15ddd0031
:101640008b02750085034300043db80008beb90055
:101650008c8545004f52de00415cdd0008027200bf
:101660004f5cde00052db80000054500e0854d000b
:101670004f55de00c15ddd008b0275008503430020
:10168000043db80008beb9008c8545004f52de000d
:10169000415cdd00080272004f5cde00052db800e1
:1016a00000054500e0854d004f55de00c15ddd00c1
:1016b0008b02750085034300043db80008beb900e5
:1016c0008c8545004f52de00415cdd00080272004f
:1016d000cf5ade00120020007018e10004003c0028
:1016e000f08011008110de000310dd0003003700e0
:1016f000f08051008110dd000000eb004f89de001a
:10170000820178004fabde00860378000404b80045
:101710000506b8008904460060854e000606b8003c
:101720000a054600040eb800890446000a854e00ea
:10173000050eb8000a0546000416b8000a05460062
:101740008b0546004e40de00424add00040070007a
:10175000ce48de004252dd00848070004f06be009d
:101760004f05be004f04780001c2b9000040b90027
:10177000810042004f04be00fa0037000300e00081
:101780007c0034008a9fbe008c9fbe0000002200b7
:1017900006002800850343000725b8004f55de00ea
:1017a000c15ddd000b027500052db8000005450088
:1017b000e0854d004e55de00c25ddd008b027500f8
:1017c000e08342000725b8006126b9008c854500fa
:1017d0000b027800052cb80006044400e0844c009d
:1017e000c1cade004100dd00060028008503430079
:1017f0000725b8004f55de00c15ddd000b02750006
:10180000052db80000054500e0854d004f55de0070
:10181000c15ddd008b027500850343000725b8001c
:101820004f55de00c15ddd000b027500052db800cf
:1018300000054500e0854d004f55de00c15ddd002f
:101840008b027500850343000725b8004f52de0068
:10185000415cdd00080272004f5cde00052db8001f
:1018600000054500e0854d004f55de00c15ddd00ff
:101870008b02750085034300043db80008beb90023
:101880008c8545004f52de00415cdd00080272008d
:101890004f5cde00052db80000054500e0854d00d9
:1018a0004f55de00c15ddd008b02750085034300ee
:1018b000043db80008beb9008c8545004f52de00db
:1018c000415cdd0008027200cf5ade0012002000e9
:1018d0007018e10004003c00f08011008110de006f
:1018e0000310dd0003003700f08051008110dd009f
:1018f0000000eb004f89de00820178004fabde0074
:10190000860378000404b8000506b8008904460080
:1019100060854e000606b8000a054600040eb800b1
:10192000890446000a854e00050eb8000a054600e7
:101930000416b8000a0546008b0546004e40de003e
:10194000424add0004007000ce48de004252dd0055
:10195000848070004f06be004f05be004f04780023
:1019600001c2b9000040b900810042004f04be002e
:101970007c0037008a9fbe008c9fbe0000002400c0
:1019800006002800850343000725b8004f55de00f8
:10199000c15ddd000b027500052db8000005450096
:1019a000e0854d004f55de00c15ddd008b02750006
:1019b000850343000725b8004f55de00c15ddd00fb
:1019c0000b027500052db80000054500e0854d00af
:1019d0004f55de00c15ddd008b02750085034300bd
:1019e0000725b8004f55de00c15ddd000b02750014
:1019f000052db80000054500e0854d004f55de007f
:101a0000c15ddd008b027500850343000725b8002a
:101a10004f55de00c15ddd000b027500052db800dd
:101a200000054500e0854d004f55de00c15ddd003d
:101a30008b0275000004eb00850343000725b80006
:101a40004f52de00415cdd00080272004f5cde0098
:101a5000052db80000054500e0854d004f55de001e
:101a6000c15ddd008b02750085034300043db800b5
:101a700008beb9008c8545004f52de00415cdd0098
:101a8000080272004f5cde00052db800000545001d
:101a9000e0854d004f55de00c15ddd008b02750015
:101aa00085034300043db80008beb9008c8545009d
:101ab0004f52de00415cdd0008027200cf5ade00aa
:101ac000120020007018e10004003c00f0801100ba
:101ad0008110de000310dd0003003700f0805100ac
:101ae0008110dd000000eb004f89de0082017800ec
:101af0004fabde00860378000404b8000506b8008a
:101b00008904460060854e000606b8000a054600b6
:101b1000040eb800890446000a854e00050eb80080
:101b20000a0546000416b8000a0546008b05460063
:101b30004e40de00424add0004007000ce48de0068
:101b40004252dd00848070004f06be004f05be008b
:101b50004f04780001c2b9000040b9008100420082
:101b60004f04be004f03780004c429000430e10094
:101b70000200360061004000e08048000802780062
:101b8000890278004fabde004f89de000404b80004
:101b90000506b8008904460060854e000606b800b8
:101ba0000a054600e0854e000606b8008b05460093
:101bb000040eb800890446000a854e00e0854d00f9
:101bc000050eb8000a0546008b854e00060eb800cb
:101bd0008b0546000416b8000a0546008b854e00aa
:101be0000516b8008b0546000416b8008b054600a4
:101bf00061804400e0004d00e0854d0000003700aa
:101c00000bf0a300070031000b00e00002003a00d7
:101c100001f0a3000b003900f0ff2f00f1ff2700b7
:101c200008003700f4ff2f000458e10003003a00d9
:101c3000040028000408e100020031000000eb006d
:101c40000100280056010700d41725004f89de0047
:101c50000404b800040eb8000900460060854e0078
:101c60000416b8008a0046004f06be004f05be00ad
:101c70004f04be0000000600060007000700080031
:101c80000800090009000a000a000b000b000c0004
:101c9000fc000d000d000e000f000f0010001000e2
:101ca0001100010002000200030003000400040010
:101cb00005000500060006000700070008000800f0
:101cc000090009000a000a000b000b000c000c00c0
:101cd0000d000d00fd000e000f001000100011009f
:101ce00011001200010002000200030003000400c2
:101cf00004000500050006000600070007000800b4
:101d00000800090009000a000a000b000b000c0083
:101d10000c000d000d000e00fd00fe000f00100075
:101d20001100110012001200130002000300030052
:101d30000400040005000500060006000700070077
:101d400008000800090009000a000a000b000b0047
:101d50000c000c000d000d000e000e000f000f0017
:101d6000fd00fd00fe00120012001300130014001d
:101d70001400020002000300030004000400050038
:101d8000050006000600070007000800080009001b
:101d900009000a000a000b000b000c000c000d00eb
:101da0000d000e000e000f000f00fe00fe00ff00f1
:101db000ff001200130013001400140003000300be
:101dc00004000400050005000600060007000700e7
:101dd00008000800090009000a000a000b000b00b7
:101de0000c000c000d000d000e000e000f000f0087
:101df0001000100011001100fe00fe00ff00ff00a7
:101e0000000015001500160016001700030004005e
:101e10000400050005000600060007000700080092
:101e20000800090009000a000a000b000b000c0062
:101e30000c000d000d000e000e000f000f00100032
:101e400010001100110012001200fe00fe00ff0041
:101e5000ff00000001001600170017001800030023
:101e60000400040005000500060006000700070046
:101e700008000800090009000a000a000b000b0016
:101e80000c000c000d000d000e000e000f000f00e6
:101e900010001000110011001200120013001300b6
:101ea000fe00fe00ff00ff00000000000100020035
:101eb0001800190019001a000400050005000600aa
:101ec00006000700070008000800090009000a00d2
:101ed0000a000b000b000c000c000d000d000e00a2
:101ee0000e000f000f001000100011001100120072
:101ef0001200130013001400140015001500fe005a
:101f0000fe00ff00ff0000000000010002001a00b8
:101f10001b001b001c000400050005000600060055
:101f20000700070008000800090009000a000a006d
:101f30000b000b000c000c000d000d000e000e003d
:101f40000f000f001000100011001100120012000d
:101f500013001300140014001500150016001600dd
:101f6000fe00fe00ff00ff00000000000100020074
:101f70000200030003001d001d000500050006000f
:101f800006000700070008000800090009000a0011
:101f90000a000b000b000c000c000d000d000e00e1
:101fa0000e000f000f0010001000110011001200b1
:101fb0001200130013001400140015001500160081
:101fc0001600170017001800180019001900ff006c
:101fd000ff000000000001000100020003000300f8
:101fe000040004000500200021000600070007008f
:101ff00008000800090009000a000a000b000b0095
:102000000c000c000d000d000e000e000f000f0064
:102010001000100011001100120012001300130034
:102020001400140015001500160016001700170004
:1020300018001800190019001a001a001b001b00d4
:102040001c001c00ff00ff00000000000100010058
:102050000200020003000400040005000500060061
:1020600006002500250008000800090009000a00f4
:102070000a000b000b000c000c000d000d000e0000
:102080000e000f000f0010001000110011001200d0
:1020900012001300130014001400150015001600a0
:1020a00016001700170018001800190019001a0070
:1020b0001a001b001b001c001c001d001d001e0040
:1020c0001e001f001f002000200021002100000032
:1020d00000000100010002000200030003000400f0
:1020e00004000500060006000700070008000800bd
:1020f0002b0009000a000a000b000b000c000c006a
:102100000d000d000e000e000f000f00100010005b
:10211000110011001200120013001300140014002b
:1021200015001500160016001700170018001800fb
:10213000190019001a001a001b001b001c001c00cb
:102140001d001d001e001e001f001f00200020009b
:10215000210021002200220023002300240024006b
:102160002500250026002600270027002800ff0064
:102170000000000001000100020002000300030053
:102180000400040005000500060007000700080021
:102190000800090009000a000a000b0034000000d2
:1021a0000000e00006003a00020028000208e100fa
:1021b00003003a0020de2600e1ff2f0000000600a9
:1021c0001600200001f0a30004003900f6ff2f00e4
:1021d00001b2b9000030b900810042006108e1009d
:1021e00005003a006300e10003003e00f1902c007e
:1021f0000688b80000000600889fbe008a9fbe00c7
:102200008c9fbe00811f7800860578008b1f7800a8
:102210006108e1009a013900f4ff27000408e10099
:102220000d003a00f4ff2f000400e1000a003a001c
:10223000e02129006132b9000030b900810042007c
:10224000cf0578004f0178004f06be004f05be0055
:102250004f04be00000006008181cf000300e000b3
:1022600004003a000118e700030120000081cf00bc
:1022700083014100e28151007018e10005003c003b
:10228000708111000202de008308dd00848070008e
:1022900003003700708151008200dd000400280037
:1022a00004002800810252006118e100800034001f
:1022b000889fbe008a9fbe008c9fbe000000220047
:1022c00006002800050343000625b8004f55de0030
:1022d000c15ddd000b027500052db800000545004d
:1022e000e0854d004e55de00c25ddd008b027500bd
:1022f000e08342000725b8006126b9008c854500bf
:102300000b027800052db800e1854500c1dade003a
:102310000000240006002800850343000725b800bc
:102320004230de0000054500e0854d004f55de00df
:10233000c15ddd000b027500052db80000e0230033
:1023400000054500e0854d004f55de00c15ddd0014
:102350008b027500850343000725b8004f52de004d
:10236000415cdd00080272004f5cde0000002400ca
:10237000052db80000054500e0854d004f55de00f5
:10238000c15ddd008b02750085034300043db8008c
:1023900008beb9008c8545004f52de00415cdd006f
:1023a000080272004f5cde00052db80000054500f4
:1023b000e0854d004f55de00c15ddd008b027500ec
:1023c00085034300043db80008beb9008c85450074
:1023d0004f52de00415cdd00080272004f5cde00ff
:1023e000052db80000054500e0854d004f55de0085
:1023f000c15ddd008b02750085034300043db8001c
:1024000008beb9008c8545004f52de00415cdd00fe
:1024100008027200cf5ade00120020007018e1009e
:1024200004003c00f08011008110de000310dd008c
:1024300003003700f08051008110dd000000eb0048
:102440004f89de00820178004fabde008603780002
:102450000404b8000506b8008904460060854e00f3
:102460000606b8000a054600040eb80089044600b6
:102470000a854e00050eb8000a0546000416b8008d
:102480000a0546008b0546004e40de00424add004c
:1024900004007000ce48de004252dd0084807000ef
:1024a0004f06be004f05be004f04be00f4003700cb
:1024b0000300e00079003400889fbe008a9fbe00c0
:1024c0008c9fbe0000002200060028008503430008
:1024d0000725b8004f55de00c15ddd000b02750019
:1024e000052db80000054500e0854d004e55de0085
:1024f000c25ddd008b027500e08342000725b80055
:102500006126b9008c8545000b027800052cb800c7
:1025100006044400e0844c00c1cade004100dd0036
:1025200006002800850343000725b8004f55de004c
:10253000c15ddd000b027500052db80000054500ea
:10254000e0854d004f55de00c15ddd008b0275005a
:10255000850343000725b8004f55de00c15ddd004f
:102560000b027500052db80000054500e0854d0003
:102570004f55de00c15ddd008b0275008503430011
:102580000725b8004f52de00415cdd0008027200f2
:102590004f5cde00052db80000054500e0854d00cc
:1025a0004f55de00c15ddd008b02750085034300e1
:1025b000043db80008beb9008c8545004f52de00ce
:1025c000415cdd00080272004f5cde00052db800a2
:1025d00000054500e0854d004f55de00c15ddd0082
:1025e0008b02750085034300043db80008beb900a6
:1025f0008c8545004f52de00415cdd000802720010
:10260000cf5ade00120020007018e10004003c00e8
:10261000f08011008110de000310dd0003003700a0
:10262000f08051008110dd000000eb004f89de00da
:10263000820178004fabde00860378000404b80006
:102640000506b8008904460060854e000606b800fd
:102650000a054600040eb800890446000a854e00ab
:10266000050eb8000a0546000416b8000a05460023
:102670008b0546004e40de00424add00040070003b
:10268000ce48de004252dd00848070004f06be005e
:102690004f05be004f04be0079003700889fbe0082
:1026a0008a9fbe008c9fbe00000024000600280008
:1026b000850343000725b8004f55de00c15ddd00ee
:1026c0000b027500052db80000054500e0854d00a2
:1026d0004f55de00c15ddd008b02750085034300b0
:1026e0000725b8004f55de00c15ddd000b02750007
:1026f000052db80000054500e0854d004f55de0072
:10270000c15ddd008b027500850343000725b8001d
:102710004f55de00c15ddd000b027500052db800d0
:1027200000054500e0854d004f55de00c15ddd0030
:102730008b027500850343000725b8004f55de0066
:10274000c15ddd000b027500052db80000054500d8
:10275000e0854d004f55de00c15ddd008b02750048
:102760000004eb00850343000725b8004f52de004c
:10277000415cdd00080272004f5cde00052db800f0
:1027800000054500e0854d004f55de00c15ddd00d0
:102790008b02750085034300043db80008beb900f4
:1027a0008c8545004f52de00415cdd00080272005e
:1027b0004f5cde00052db80000054500e0854d00aa
:1027c0004f55de00c15ddd008b02750085034300bf
:1027d000043db80008beb9008c8545004f52de00ac
:1027e000415cdd0008027200cf5ade0012002000ba
:1027f0007018e10004003c00f08011008110de0040
:102800000310dd0003003700f08051008110dd006f
:102810000000eb004f89de00820178004fabde0044
:10282000860378000404b8000506b8008904460051
:1028300060854e000606b8000a054600040eb80082
:10284000890446000a854e00050eb8000a054600b8
:102850000416b8000a0546008b0546004e40de000f
:10286000424add0004007000ce48de004252dd0026
:10287000848070004f06be004f05be004f04be00ae
:102880004100de00cf08dd00008270000005780006
:10289000c2c127000220e100b40035000200280078
:1028a0008402510005abb9006203430085834b00ed
:1028b0004233de004e39dd0002037300c2bbde008e
:1028c00002002100050022000203430085834b0023
:1028d0004d33de004339dd0002037300cdbbde0063
:1028e000889fbe00cfa0de000624b8000722b800f3
:1028f00089044200060ab800090042004f04be00e5
:10290000f2ff27000200e10008003600cf05780042
:102910008148260001d8b9004f0178004f06be005b
:102920004f05be004f04be00000006000000b800c6
:102930004f00de00c108dd0001007000010028002a
:1029400000805000889fbe008081cf00e28051004f
:102950000101dd000000280080025100050278001e
:10296000c12add000600240006a3b90005a4b900b1
:1029700000002f000981b900060341008783490048
:1029800005ccb900008020000981b9000603410090
:102990008783490005ccb90000b02f000981b90038
:1029a000060341008783490005ccb90000382000a8
:1029b0000981b900060341008783490005ccb900ad
:1029c00000d62f000981b900060341008783490022
:1029d00005ccb900002120000981b900060341009f
:1029e000878349004f33de004138dd000003730068
:1029f000cfbbde000000280006034000e0834b0050
:102a00004109de00700011000233de000038dd00f5
:102a10000003730082bbde000100a3000500390043
:102a200024a8250004b0b9004f00de00c108dd0075
:102a3000010370004f04be00cfb3de000632b800c1
:102a40004e22de00c22add00850172000618b800a1
:102a5000b4aa22000122b80005034300e0834b0022
:102a60000118b800343321000122b80005034300e7
:102a7000e0834b000118b800e4b620000122b80042
:102a800005034300e0834b000118b800747c20006c
:102a90000122b80005034300e0834b0004912c00a1
:102aa00006035200e0835b00cf05780007dab90027
:102ab0000658b900810042004100de004f0add00e7
:102ac00004007000c188de00f4ea27000450e10031
:102ad00015003d00c4c12700840255003200f800f3
:102ae0000600200096018800c5e32000040355007d
:102af000868242000500a300030031009541ba0020
:102b00008301fb00030037008502e90095c1ba008c
:102b10008301fb003200f90003dbb9000000430031
:102b200081804b004602370014f027000450e1007a
:102b300007003d0074e927000402550041a2de00b1
:102b40000ba3b9000000430081804b003c0237001a
:102b500004f027000402550041a2de000ba3b800d8
:102b60000000430081804b00350237004f53dd00e9
:102b7000c153de000a50b8004e00de00c208dd007e
:102b8000810170000350b800b4aa2200040ab80002
:102b90000403530085835b000308b80064662600c5
:102ba000040ab8004222de004e28dd000002720056
:102bb000c2aade000403430085834b000308b8006b
:102bc00054922400040ab8004222de004e28dd00a0
:102bd00000027200c2aade000403530085835b007a
:102be000646622000450e100100234000308b800bb
:102bf000741c2700040ab8004322de004d28dd00c3
:102c000000027200c3aade000403430085834b0068
:102c10000308b80074d12500040ab8004322de007e
:102c20004d28dd0000027200c3aade000403530039
:102c300085835b000308b80054ec2400040ab80044
:102c40004322de004d28dd0000027200c3aade0030
:102c50000403430085834b000308b8004444240068
:102c6000040ab8004322de004d28dd000002720095
:102c7000c3aade000403530085835b00c4cc240098
:102c80000450e100e90134000308b80084872700fc
:102c9000040ab8004422de004c28dd000002720065
:102ca000c4aade000403430085834b000308b80078
:102cb000a4bc2600040ab8004422de004c28dd0033
:102cc00000027200c4aade000403530085835b0087
:102cd0000308b80064182600040ab8004422de0085
:102ce0004c28dd0000027200c4aade000403430089
:102cf00085834b00949925000450e100cb013400fa
:102d00000308b800b4902500040ab8004422de008d
:102d10004c28dd0000027200c4aade000403530048
:102d200085835b000308b800c41e2500040ab800b0
:102d30004422de004c28dd0000027200c4aade003e
:102d40000403430085834b000308b800a4bd24009e
:102d5000040ab8004422de004c28dd0000027200a4
:102d6000c4aade000403530085835b000308b80097
:102d7000f4692400040ab8004422de004c28dd0077
:102d800000027200c4aade000403430085834b00e6
:102d90000308b80014212400040ab8004422de000d
:102da0004c28dd0000027200c4aade0004035300b8
:102db00085835b000308b800f4c12700040ab8004b
:102dc0004522de004b28dd0000027200c5aade00ad
:102dd0000403430085834b00646626000450e10031
:102de000920134000308b80074502700040ab800a8
:102df0004522de004b28dd0000027200c5aade007d
:102e00000403530085835b000308b80044eb2600ed
:102e1000040ab8004522de004b28dd0000027200e3
:102e2000c5aade000403430085834b000308b800f5
:102e300074902600040ab8004522de004b28dd000d
:102e400000027200c5aade000403530085835b0004
:102e50000308b800743e2600040ab8004522de00cc
:102e60004b28dd0000027200c5aade000403430007
:102e700085834b000308b80014f42500040ab80049
:102e80004522de004b28dd0000027200c5aade00ec
:102e90000403530085835b000308b80064b0250079
:102ea000040ab8004522de004b28dd000002720053
:102eb000c5aade000403430085834b00c4cc260072
:102ec0000450e100590134000308b8006472250081
:102ed000040ab8004522de004b28dd000002720023
:102ee000c5aade000403530085835b000308b80015
:102ef00084392500040ab8004522de004b28dd0095
:102f000000027200c5aade000403430085834b0063
:102f10000308b80004052500040ab8004522de00b5
:102f20004b28dd0000027200c5aade000403530036
:102f300085835b000308b80084d42400040ab80029
:102f40004522de004b28dd0000027200c5aade002b
:102f50000403430085834b000308b80094a72400b2
:102f6000040ab8004522de004b28dd000002720092
:102f7000c5aade000403530085835b000308b80084
:102f8000c47d2400040ab8004522de004b28dd0081
:102f900000027200c5aade000403430085834b00d3
:102fa0000308b800c4562400040ab8004522de0015
:102fb0004b28dd0000027200c5aade0004035300a6
:102fc00085835b000308b80064322400040ab8005b
:102fd0004522de004b28dd0000027200c5aade009b
:102fe0000403430085834b000308b8004410240009
:102ff000040ab8004522de004b28dd000002720002
:10300000c5aade000403530085835b000308b800f3
:1030100084e02700040ab8004622de004a28dd00ca
:1030200000027200c6aade000403430085834b0041
:10303000343327000450e100fc0034000308b800da
:1030400054a42700040ab8004622de004a28dd0006
:1030500000027200c6aade000403530085835b00f1
:103060000308b800a46b2700040ab8004622de005b
:103070004a28dd0000027200c6aade0004034300f5
:1030800085834b000308b80014362700040ab800f3
:103090004622de004a28dd0000027200c6aade00d9
:1030a0000403530085835b000308b80084032700f2
:1030b000040ab8004622de004a28dd000002720041
:1030c000c6aade000403430085834b000308b80052
:1030d000a4d32600040ab8004622de004a28dd00f8
:1030e00000027200c6aade000403530085835b0061
:1030f0000308b80044a62600040ab8004622de00f1
:103100004a28dd0000027200c6aade000403430064
:1031100085834b000308b800247b2600040ab8000e
:103120004622de004a28dd0000027200c6aade0048
:103130000403530085835b000308b8003452260063
:10314000040ab8004622de004a28dd0000027200b0
:10315000c6aade000403430085834b000308b800c1
:10316000342b2600040ab8004622de004a28dd007f
:1031700000027200c6aade000403530085835b00d0
:103180000308b80004062600040ab8004622de0040
:103190004a28dd0000027200c6aade0004034300d4
:1031a00085834b000308b80094e22500040ab800a8
:1031b0004622de004a28dd0000027200c6aade00b8
:1031c0000403530085835b000308b800c4c02500d6
:1031d000040ab8004622de004a28dd000002720020
:1031e000c6aade000403430085834b000308b80031
:1031f00064a02500040ab8004622de004a28dd004b
:1032000000027200c6aade000403530085835b003f
:103210000308b80064812500040ab8004622de00d5
:103220004a28dd0000027200c6aade000403430043
:1032300085834b000308b800b4632500040ab80076
:103240004622de004a28dd0000027200c6aade0027
:103250000403530085835b000308b800444725003e
:10326000040ab8004622de004a28dd00000272008f
:10327000c6aade000403430085834b000308b800a0
:10328000f42b2500040ab8004622de004a28dd009f
:1032900000027200c6aade000403530085835b00af
:1032a0000308b800c4112500040ab8004622de0055
:1032b0004a28dd0000027200c6aade0004034300b3
:1032c00085834b000308b80094f82400040ab80072
:1032d0004622de004a28dd0000027200c6aade0097
:1032e0000403530085835b000308b80054e0240006
:1032f000040ab8004622de004a28dd0000027200ff
:10330000c6aade000403430085834b000308b8000f
:1033100004c92400040ab8004622de004a28dd0061
:1033200000027200c6aade000403530085835b001e
:103330000308b80084b22400040ab8004622de0064
:103340004a28dd0000027200c6aade000403430022
:1033500085834b000308b800d49c2400040ab800fd
:103360004622de004a28dd0000027200c6aade0006
:103370000403530085835b000308b800f48724002e
:10338000040ab8004622de004a28dd00000272006e
:10339000c6aade000403430085834b000308b8007f
:1033a000c4732400040ab8004622de004a28dd0067
:1033b00000027200c6aade000403530085835b008e
:1033c0000308b80044602400040ab8004622de0066
:1033d0004a28dd0000027200c6aade000403430092
:1033e00085834b000308b800744d2400040ab8001c
:1033f0004622de004a28dd0000027200c6aade0076
:103400000403530085835b000308b800443b240099
:10341000040ab8004622de004a28dd0000027200dd
:10342000c6aade000403430085834b00cf05780065
:103430004f33de00c13bdd00070073000058b900c8
:10344000c108dd004f01de00810071004100dd0098
:103450004f0678006160e100110035000b00e000cc
:10346000070035000422290000005200e180180006
:103470004f06be004f05be004f04be000000060010
:1034800004de2600e5ff2f000000520081805a0074
:103490004f06be004f05be004f04be0000000600f0
:1034a0004f06be004f05be004f04be0000000600e0
:1034b00000027800810278000000e00010003a006d
:1034c000020028008101780000002800cf80de0083
:1034d0000218e70000000600f2ff270000002800a5
:1034e0008000eb000218e70000000600f0ff2f004c
:1034f000f1ff27000001eb000218e70000000600c2
:10350000889fbe008a9fbe008c9fbe00040078008a
:10351000850078001800200001f0a30004003900a5
:10352000f8ff2f0001c2b9000040b900810042003d
:10353000881f78008181cf000300e00004003a007a
:103540000118e700030120000081cf008301410042
:10355000e28151007018e10006003c00708111000a
:103560000202de008308dd00848070000300dd00bd
:1035700003003700708151008200dd000000eb0085
:103580004100de00cf0add0005007000c108de004a
:10359000831f7800050024000002eb0000015200a8
:1035a00081815a00858041000414b8000516b800d6
:1035b0008904460060854e008005eb00040eb800cb
:1035c000890446000a854e00e0854d00050eb800ce
:1035d0000a0546008b854e004e48de00c250dd00d5
:1035e000010370004e50de00c258dd008103700000
:1035f0000214b8000316b8008904460060854e0026
:103600008005eb00890446000a854e00e0854d00e8
:10361000031eb8000a0546008b854e004e48de00aa
:10362000c250dd00010170004e50de00c258dd00c6
:103630008101700000002400808041000614b80061
:103640000716b8008904460060854e008005eb002f
:10365000060eb800890446000a854e00e0854d003c
:10366000070eb8000a0546008b854e004e48de0066
:10367000c250dd00010370004e50de00c258dd0074
:10368000810370000214b8000316b80089044600d4
:1036900060854e008005eb00890446000a854e00d7
:1036a000e0854d00031eb8000a0546008b854e00dc
:1036b0004e48de00c250dd00010170004e50de00b9
:1036c000c258dd00810170000000240080804100ac
:1036d0000614b8000716b8008904460060854e003d
:1036e0008005eb00060eb800890446000a854e00ee
:1036f000e0854d00070eb8000a0546008b854e0098
:103700004e48de00c250dd00010370004e50de0066
:10371000c258dd00810370000214b8000316b8001f
:103720008904460060854e008005eb008904460050
:103730000a854e00e0854d00031eb8000a054600cc
:103740008b854e004e48de00c250dd000101700046
:103750004e50de00c258dd008101700000002400e0
:10376000808041000614b8000716b800890446009e
:1037700060854e008005eb00060eb8008904460007
:103780000a854e00e0854d00070eb8000a05460088
:103790008b854e004e48de00c250dd0001037000f4
:1037a0004e50de00c258dd00810370000214b800e4
:1037b0000316b8008904460060854e008005eb00c2
:1037c000890446000a854e00e0854d00031eb800be
:1037d0000a0546008b854e004e48de00c250dd00d3
:1037e000010170004e50de00c258dd008101700002
:1037f00000002400808041000614b8000716b800bd
:103800008904460060854e008005eb00060eb80076
:10381000890446000a854e00e0854d00070eb80079
:103820000a0546008b854e004e48de00c250dd0082
:10383000010370004e50de00c258dd0081037000ad
:103840000214b8000316b8008904460060854e00d3
:103850008005eb00890446000a854e00e0854d0096
:10386000031eb8000a0546008b854e004e48de0058
:10387000c250dd00010170004e50de00c258dd0074
:103880008101700000002400808041000614b8000f
:103890000716b8008904460060854e008005eb00dd
:1038a000060eb800890446000a854e00e0854d00ea
:1038b000070eb8000a0546008b854e004e48de0014
:1038c000c250dd00010370004e50de00c258dd0022
:1038d000810370000214b8000316b8008904460082
:1038e00060854e008005eb00890446000a854e0085
:1038f000e0854d00031eb8000a0546008b854e008a
:103900004e48de00c250dd00010170004e50de0066
:10391000c258dd0081017000000024008080410059
:103920000614b8000716b8008904460060854e00ea
:103930008005eb00060eb800890446000a854e009b
:10394000e0854d00070eb8000a0546008b854e0045
:103950004e48de00c250dd00010270004e50de0015
:10396000c258dd0081027000cf01780012002000f3
:103970007018e10004003c00f08011008110de00ae
:103980000310dd0003003700f08051008110dd00de
:103990000000eb004f89de00820178004fabde00b3
:1039a000860378000404b8000506b80089044600c0
:1039b00060854e000606b8000a054600040eb800f1
:1039c000890446000a854e00050eb8000a05460027
:1039d0000416b8000a0546008b0546004f40de007d
:1039e000414add0004007000cf48de004152dd0096
:1039f000848070004f04780001c2b9000040b90013
:103a0000810042004f06be004f05be004f04be00bd
:103a1000000006000400fa00e0bf9f00e4815700a8
:103a2000812978000002eb000f0037006fb8970083
:103a3000904078007fb89700104078000402e800ba
:103a400080cf5000040032008180fb000080fb002a
:103a500000805000070037006fb897000000e800b2
:103a6000e0bf9f009309e800820f5200efff3a0089
:103a70000000eb000080fa00000006008001eb006f
:103a80000200370061f079008301e800828f510065
:103a9000fcff3a0000000600889fbe008a9fbe001f
:103aa0008000780000c2b300010037008900780070
:103ab0008104780039447800804f5400fbff3200c5
:103ac000e94f5400f9ff3200d0c2b300804f5400d8
:103ad00004003a00194478008184e8001ac0b30059
:103ae000060037000045eb00b0c2b300804f540021
:103af00002003a00194478008184e8006022b8008e
:103b00000a003700a2002000030020000400be00cd
:103b100048f207000b4144000281fb000300200033
:103b20000002410081824900394478000880fb008e
:103b30000bfd2f000b004000e90f5000f1ff360095
:103b40000a04e0000200320060021200e0821a0063
:103b50000400be004f05be004f04be00000006007a
:020000040000fa
:0200000401f009
:04000000e7bf000056
:020000040000fa
:0200000401f009
:04000400ff7f00007a
:020000040000fa
:0200000401f009
:04000800fcff0000f9
:020000040000fa
:0200000401f009
:04000c00ffff0000f2
:020000040000fa
:0200000401f009
:04001000ffff0000ee
:020000040000fa
:0200000401f009
:04001400ffff0000ea
:020000040000fa
:1000080090010000065a00001e5a0000365a0000ef
:100018004e5a00009001000090010000900100007d
:100028009001000090010000900100009001000084
:100038009001000090010000900100009001000074
:1000480090010000c0510000985100004c5500007c
:100058009001000090010000900100009001000054
:100068009001000090010000900100009001000044
:1000780090010000900100000e5b0000900100005c
:1000880002520000ac5100009001000090010000f5
:100098009001000090010000900100009001000014
:1000a8009001000090010000900100009001000004
:1000b800900100009001000090010000e659000046
:1000c80090010000900100009001000090010000e4
:1000d80090010000900100009001000090010000d4
:1000e80090010000900100009001000090010000c4
:0800f8009001000090010000de
:020000040000fa
:1001080090010000665a00007e5a0000965a0000ce
:10011800ae5a00009001000090010000900100001c
:100128009001000090010000900100009001000083
:100138009001000090010000900100009001000073
:1001480090010000c0510000985100004c5500007b
:100158009001000090010000900100009001000053
:100168009001000090010000900100009001000043
:1001780090010000900100000e5b0000900100005b
:1001880002520000ac5100009001000090010000f4
:100198009001000090010000900100009001000013
:1001a8009001000090010000900100009001000003
:1001b800900100009001000090010000e659000045
:1001c80090010000900100009001000090010000e3
:1001d80090010000900100009001000090010000d3
:1001e80090010000900100009001000090010000c3
:0801f8009001000090010000dd
:020000040000fa
:103b600044690000736300006f6e00006e65000022
:103b70006374000020530000414300005420000003
:103b80000044000049530000004300004f4e000075
:103b9000545200004f4c0000204d00004f440000e4
:103ba000452000002020000020000000434d0000c0
:103bb0004f0000005345000054200000544f000007
:103bc000525100005545000020520000656600007b
:103bd000732e0000005300005452000000530000f8
:103be0004554000020560000454c00004f430000a3
:103bf0002e20000052650000667300002e000000b9
:103c000053560000520000005345000054200000ad
:103c1000504f000053490000542e00002052000075
:103c20006566000073200000005300005052000041
:103c3000005400006f200000426500002044000096
:103c400045460000494e0000454400002031000078
:103c5000200000005442000031000000546f0000ba
:103c60002042000065200000444500004649000055
:103c70004e450000442000003220000000540000a7
:103c800042320000005400006f2000004265000036
:103c90002044000045460000494e00004544000015
:103ca00020330000200000005442000033000000d8
:103cb000505500004c5300004520000028420000f1
:103cc000494e00002e6f00006e6c00007929000044
:103cd00000500000554c000000550000504400000a
:103ce00041540000452000004545000050520000ae
:103cf0004f4d00002020000020000000554500002e
:103d000045000000524500005345000054200000cb
:103d10004d6f0000742e0000414e0000474c000023
:103d200045730000005200004d41000000520000a9
:103d30004553000045540000205400002e4200006e
:103d40002e4400002e200000202000002000000053
:103d5000525400004200000053450000542000006f
:103d60005353000050200000464c00004147000023
:103d700053200000202000000053000053460000a4
:103d8000004d000041580000204300005552000043
:103d9000524500004e54000020200000202000006a
:103da000200000004d580000430000004d4100007d
:103db00058200000564500004c4f000043490000c9
:103dc000545900002020000020200000004d000079
:103dd00058560000004d00004158000020410000ee
:103de00043430000454c0000455200004154000090
:103df000494f00004e0000004d58000041000000f7
:103e0000564500004c2e00002053000043410000a6
:103e10004c4900004e470000204e00002e200000bc
:103e200000560000534e00000041000043430000d4
:103e30002e20000053430000414c0000494e00007a
:103e4000472000004e2e00002000000041530000db
:103e50004e00000043550000525200002e4c00005e
:103e60006f6f0000702000005020000047410000ec
:103e7000494e0000004300004c5000000043000089
:103e800055520000522e00004c6f00006f70000071
:103e90002049000020470000414900004e0000007a
:103ea000434c0000490000004355000052520000fe
:103eb0002e4c00006f6f00007020000044200000b6
:103ec00047410000494e0000004300004c44000000
:103ed0000043000055520000522e00004c6f0000bd
:103ee0006f70000020530000434100004c4500006b
:103ef00020000000434c0000530000005645000025
:103f00004c2e0000204c00006f6f0000702000005d
:103f10005020000047410000494e000000560000bc
:103f20004c50000000560000454c00002e200000c0
:103f30004c6f00006f700000204900002047000017
:103f4000414900004e000000564c000049000000ae
:103f5000564500004c2e0000204c00006f6f000002
:103f6000702000004420000047410000494e00003e
:103f7000005600004c44000000560000454c000074
:103f80002e2000004c6f00006f70000020530000d6
:103f9000434100004c45000020000000564c00004a
:103fa00053000000504f0000532e0000204c000032
:103fb0006f6f00007020000050200000474100009b
:103fc000494e0000005000004c500000005000001e
:103fd0004f5300002e2000004c6f00006f70000057
:103fe0002049000020470000414900004e00000029
:103ff000504c000049000000504f0000532e0000bc
:10400000204c00006f6f0000702000004420000072
:1040100047410000494e0000005000004c440000a1
:10402000005000004f5300002e2000004c6f000095
:104030006f70000020530000434100004c45000019
:1040400020000000504c000053000000504f0000c2
:1040500053490000542e0000414e0000474c000020
:10406000452000004c6900006d2e0000005000004b
:10407000414c0000004e0000454700004154000044
:104080002e4100004e4700004c450000204c00002f
:10409000696d00002e0000004e4100004c00000041
:1040a000454e0000432e0000204300006f750000c5
:1040b0006e7400002e20000052650000762e000075
:1040c0000045000043520000004400004952000037
:1040d00045430000544900004f4e00002066000098
:1040e0006c61000067730000200000004452000073
:1040f000460000004144000043200000544f0000ef
:10410000525100005545000020530000434100007b
:104110004c45000000410000545300000000000026
:10412000000000000000000000000000b09d000042
:10413000c19d000000000000000000000100000020
:10414000c59d0000d69d000000000000000000009a
:1041500002000000da9d0000eb9d0000000000005e
:104160000000000002000000ef9d0000009e000023
:10417000000000000000000002000000049e00009b
:10418000159e00000000000000000000010000007b
:10419000199e00002a9e00000000000000000000a0
:1041a000010000002e9e00003f9e00000000000065
:1041b0000000000001000000439e0000549e00002b
:1041c000000000000000000000000000589e0000f9
:1041d000699e0000000000000000000000000000d8
:1041e0006d9e00007e9e00000000000000000000a8
:1041f00002000000829e0000939e0000000000006c
:104200000000000001000000979e0000a89e000032
:10421000000000000000000001000000ac9e000053
:10422000bd9e000001000000ff7f000001000000b3
:10423000c19e0000d29e000001000000ff7f000030
:1042400001000000d69e0000e79e00000100000073
:10425000ff7f000001000000eb9e0000fc9e0000bc
:10426000000000000f00000001000000009f00009f
:10427000119f0000000000000f000000010000007e
:10428000159f0000269f000001000000ff7f000036
:10429000010000002a9f00003b9f00000100000079
:1042a000ff7f0000010000003f9f0000509f0000c2
:1042b00001000000ff7f000001000000549f00008b
:1042c000659f0000000000000f00000001000000da
:1042d000699f00007a9f000001000000ff7f00003e
:1042e000010000007e9f00008f9f00000100000081
:1042f000ff7f000001000000939f0000a49f0000ca
:1043000001000000ff7f000001000000a89f0000e6
:10431000b99f0000000000000f0000000100000035
:10432000bd9f0000ce9f000001000000ff7f000045
:1043300001000000d29f0000e39f00000100000088
:10434000ff7f000001000000e79f0000f89f0000d1
:1043500001000000ff7f000001000000fc9f000042
:104360000da000000000000014000000010000008b
:1043700011a0000022a0000001000000ff7f00004b
:104380000100000026a0000037a00000010000008e
:10439000ff7f0000010000003ba000004ca00000d7
:1043a00001000000ff7f00000100000050a000009d
:1043b00061a00000000000001f00000001000000dc
:1043c00065a0000076a0000001000000ff7f000053
:1043d000010000007aa000008ba000000000000097
:1043e00000000000000000000000000000000000cd
:1043f00000000000000000000000000000000000bd
:1044000000000000000000000000000000000000ac
:10441000000000000000000000000000000000009c
:10442000000000000000000000000000000000008c
:10443000000000000000000000000000000000007c
:10444000000000000000000000000000000000006c
:10445000000000000000000000000000000000005c
:10446000000000000000000000000000000000004c
:10447000000000000000000000000000000000003c
:10448000000000000000000000000000000000002c
:10449000000000000000000000000000000000001c
:1044a000000000000d0a0000496e0000636f00006c
:1044b000727200006563000074200000436f00000a
:1044c0006d6d0000616e000064210000205400004a
:1044d0007970000065200000273f00003f270000a2
:1044e000206600006f720000206300006f6d000006
:1044f0006d6100006e6400002073000065740000b0
:104500002e0d00000a0000000d0a0000496e000098
:10451000636f000072720000656300007420000089
:10452000436f00006d6d0000616e000064210000ab
:1045300020570000726f00006e670000204e0000e0
:104540002e2000006f6600002070000061720000e5
:10455000616d00006574000065720000732e00003c
:104560000d0a0000000d00000a4900006e63000003
:104570006f72000072650000637400002043000049
:104580006f6d00006d6100006e640000212000006e
:10459000577200006f6e000067200000706100001d
:1045a000726100006d2e0000206c0000656e00003e
:1045b00067740000682e00000d0a0000000d000066
:1045c0000a450000727200006f7200003a2000007d
:1045d00070610000726100006d650000746500008c
:1045e000722000006f750000742000006f660000ec
:1045f00020720000616e000067650000210d000060
:104600000a0000000d0a000045720000726f0000f1
:10461000723a0000206300006f6d00006d610000c1
:104620006e640000206900006e760000616c00007e
:1046300069640000206900006e20000063750000be
:1046400072720000656e000074200000000d000012
:104650000a4300006f6d00006d6100006e64000091
:10466000732000006d75000073740000206200006c
:104670006520000074650000726d0000696e000026
:104680006174000065640000207700006974000018
:1046900068200000435200002f4c0000462000001c
:1046a0007365000071750000656e000063650000b1
:1046b0002e2e00002e0d00000a0000000d0a000042
:1046c0005761000069740000696e000067200000f7
:1046d000666f000072200000535900004e43000036
:1046e000302b0000637200002f6c00006620000079
:1046f000535900004e430000312b0000637200004c
:104700002f6c000066200000535900004e4300004b
:10471000412b0000637200002f6c0000660d00004a
:104720000a0000000d0a0000436f00006e740000d4
:10473000726f00006c2000004d6f00006465000087
:1047400020610000637400006976000065210000ac
:10475000204e00006f2000007061000072610000b8
:104760006d7300002075000070640000617400002b
:1047700065200000616c00006c6f00007765000030
:10478000642e00000d0a0000000d00000a41000028
:1047900063740000696f00006e200000436f00002a
:1047a0006d6d0000616e0000647300003a0d000042
:1047b0000a0000000d0a00004d6f0000746f000039
:1047c0007220000050610000726100006d65000001
:1047d00074650000727300003a0d00000a000000ca
:1047e0000d0a0000526f0000626f0000742000008c
:1047f00050610000726100006d650000746500008a
:10480000727300003a0d00000a0000000d0a00005b
:10481000436f00006e740000726f00006c20000097
:1048200050610000726100006d6500007465000059
:10483000727300003a0d00000a0000000d0a00002b
:1048400048570000204900002f4f0000732000004f
:1048500050610000726100006d6500007465000029
:10486000727300003a0d00000a0000004465000069
:10487000736300007269000070740000696f0000cb
:104880006e090000094100006262000072650000cc
:104890007669000061740000696f00006e09000015
:1048a0000943000075720000726500006e7400001c
:1048b00020560000616c0000756500000d0a0000c4
:1048c000004400006573000063720000697000001e
:1048d000746900006f6e0000090900004162000069
:1048e0006272000065760000696100007469000072
:1048f0006f6e00000909000041720000677500003a
:104900006d6500006e740000730d00000a00000069
:10491000466f0000722000004163000074690000cf
:104920006f6e0000204300006f6d00006d6100009d
:104930006e64000073090000547900007065000087
:10494000202700003f410000270d00000a00000062
:10495000466f0000722000004d6f0000746f000071
:104960007220000050610000726100006d73000051
:10497000095400007970000065200000273f000006
:104980004d27000020200000200d00000a0000003c
:10499000466f000072200000526f0000626f00003e
:1049a0007420000050610000726100006d7300000f
:1049b000095400007970000065200000273f0000c6
:1049c0005227000020200000200d00000a000000f7
:1049d000466f000072200000436f00006e740000fc
:1049e000726f00006c2000005061000072610000d6
:1049f0006d7300000954000079700000652000000c
:104a0000273f000043270000200d00000a0000009f
:104a1000466f000072200000485700002049000047
:104a20002f4f0000732000005061000072610000f1
:104a30006d730000095400007970000065200000cb
:104a4000273f000049270000200d00000a00000059
:104a50004f460000465f00004d4f000044450000f7
:104a600020200000202000000d0a0000005400005b
:104a70004f52000051550000455f00004d4f0000af
:104a8000444500000d0a00000000000056450000eb
:104a90004c5f00004d4f0000444500002020000006
:104aa000200d00000a000000005000004f530000dd
:104ab0005f4d00004f440000452000002020000012
:104ac0000d0a00000000000046410000554c0000a7
:104ad000543a0000206f0000766500007263000009
:104ae00075720000726500006e740000206d000099
:104af0006f7400006f72000020310000200d000074
:104b00000a00000046410000554c0000543a0000e5
:104b1000206f00007665000072630000757200006f
:104b2000726500006e740000206d00006f7400005c
:104b30006f72000020320000200d00000a0000000b
:104b400046410000554c0000543a0000207400001b
:104b500072610000636b000020650000727200004b
:104b60006f720000206d00006f7400006f72000013
:104b700020310000200d00000a0000004641000026
:104b8000554c0000543a000020740000726100008f
:104b9000636b000020650000727200006f720000fd
:104ba000206d00006f7400006f7200002032000062
:104bb000200d00000a0000000001000002030000b8
:104bc0000405000006070000080900000a0b0000a9
:104bd0000c320000320d00000e0f0000101100001a
:104be0001e1f00002021000022320000323200008f
:104bf0003232000032320000323200003232000025
:104c00003232000032320000323200003232000014
:104c100032120000131400001516000017180000cf
:104c2000191a00001b1c00001d3200003232000067
:104c300032320000323200003232000032320000e4
:104c400032320000323200003232000032530000b3
:104c5000594e000043300000004e00004f2000007d
:104c6000535900004e430000210d00000a000000cf
:104c7000535900004e43000031000000535900001a
:104c80004e43000000460000415500004c54000017
:104c900020440000455400004543000054450000f6
:104ca000442100000d0a0000000000000d0a000071
:104cb0002d2d00002d2d0000202000004772000047
:104cc0006970000070650000722000004143000020
:104cd00054750000617400006f72000020420000f3
:104ce0006f61000072640000202d00002d2d000077
:104cf0002d2d00000d0a00002d2d00002d2d00008f
:104d00002d20000020200000485700002052000005
:104d1000455600002e310000202d000020460000e6
:104d200057200000763000002e31000020200000c7
:104d3000202d00002d2d00002d2d00000d0a00005b
:104d40005479000070650000207400006865000060
:104d5000206600006f6c00006c6f00007769000037
:104d60006e6700002073000065710000756500002b
:104d70006e630000650d00000a530000594e0000ec
:104d8000433000002b630000722f00006c660000af
:104d900020530000594e0000433100002b630000f7
:104da000722f00006c66000020530000594e000076
:104db000434100002b630000722f00006c6600006e
:104dc0000d0a0000746f0000206500006e74000082
:104dd0006572000020410000534300004949000073
:104de000206d00006f640000653a00000d0a0000ad
:044df00000000000bf
:020000040000fa
:104df4000600fa00c0003700f6dbbf00f7fbb7007f
:104e0400c2c22100124178008280fb00e06d2100c3
:104e14000080400010407800f6fbb7000240e80034
:104e24002cfcb700fadbbf000080fb0020079800d1
:104e34002e009000e20f5000aa0032002e009000d5
:104e4400e20f500007003c002e0090000000e0003c
:104e54000b0032002e009000e10f5000470032009a
:104e6400a50037002e009000e30f500086003200aa
:104e74002e009000e40f50009a0032009e0037008c
:104e840023bf2100934178008380fb0062bf21008f
:104e940012417800008e2100008040000248780012
:104ea4000340e800f2fbb700f6dbbf000080fb0024
:104eb400100798001e009000ea0f50000600320010
:104ec4001e009000ed0f5000010032001600370064
:104ed400727aa80088003700f7dbbf00ed4f50005e
:104ee4000b003a00f2dbbf008080fb00008e210043
:104ef400808040000040eb00804878004f010700ac
:104f04000040eb00f2fbb700727aa9007a00370088
:104f1400c120200070322a005a1507000040eb001f
:104f2400f2fbb7007400370021bf210091407800e4
:104f340030c6b30080cf500005003600c1202000e9
:104f4400e0352a004f1507000040eb00f2fbb700e4
:104f540090d38000680060000000e000660032002a
:104f6400c120200070322a00461507000040eb00e3
:104f7400f2fbb700727aa9005f00370023bf21005b
:104f8400934178008380fb0062bf210012417800c6
:104f9400008e210000804000024878000340e800b1
:104fa400f2fbb700f6dbbf000080fb00000f7800c7
:104fb4001e007800ea0f5000060032001e00780040
:104fc400ed0f5000010032001a003700727aa80079
:104fd40049003700f7dbbf00ed4f50000f003a00e7
:104fe400f2dbbf008080fb00008e21008080400047
:104ff4000040eb008048780021bf210091407800f8
:10500400c2202000008e2100d20107000040eb00e6
:10501400f2fbb700727aa90037003700c1202000e4
:1050240070322a00171507000040eb00f2fbb700ae
:105034003100370021bf21009140780030c6b30011
:1050440080cf500005003600c120200020252a0012
:105054000c1507000040eb00f2fbb70090d3800072
:10506400680060000000e00023003200c12020003e
:1050740070322a00031507000040eb00f2fbb70072
:10508400727aa9001c00370023bf210093417800e5
:105094008380fb0062bf210012417800008e210052
:1050a40000804000024878000340e800f2fbb700ab
:1050b40021bf210091407800008e2100c003070029
:1050c40091d3800000042000008060000000e00014
:1050d400090032000040eb00f2fbb70072daa900cd
:1050e40005003700f6dbbf000080fb00801088005d
:1050f4000040eb00f2fbb700d1c2210091407800e0
:105104002cdcbf0080cf50003bff3a000080fa0047
:10511400000006000600fa00c0003700f8dbbf00fc
:10512400f9fbb700e2c22100124178008280fb0043
:10513400e07d21000080400010407800f8fbb700bb
:105144000240e8002efcb700fadbbf000080fb0041
:10515400200798002e009000e20f5000500032000b
:105164002e009000e20f500007003c002e0090003b
:105174000000e0000b0032002e009000e10f500010
:10518400a1003200a50037002e009000e30f50006c
:105194009d0032002e009000e40f50008300320086
:1051a4009e00370033bf2100934178008380fb00c9
:1051b40082bf210012417800409421000080400009
:1051c400024878000340e800f3fbb700f8dbbf00b7
:1051d4000080fb00100798001e009000ea0f5000aa
:1051e400060032001e009000ed0f50000100320056
:1051f40016003700729aa80088003700f9dbbf0058
:10520400ed4f50000b003a00f3dbbf008080fb0041
:1052140040942100808040000040eb0080487800ea
:10522400e90007000040eb00f3fbb700729aa90005
:105234007a0037006121200070322a00911407009f
:105244000040eb00f3fbb7007400370031bf2100ce
:105254009140780030c6b30080cf5000050036007e
:1052640061212000e0352a00861407000040eb008d
:10527400f3fbb70090d38000700060000000e000f2
:10528400660032006121200070322a007d1407007c
:105294000040eb00f3fbb700729aa9005f003700ef
:1052a40033bf2100934178008380fb0082bf21003b
:1052b40012417800409421000080400002487800a8
:1052c4000340e800f3fbb700f8dbbf000080fb00fd
:1052d400000f78001e007800ea0f5000060032002c
:1052e4001e007800ed0f5000010032001a00370054
:1052f400729aa80049003700f9dbbf00ed4f500057
:105304000f003a00f3dbbf008080fb0040942100d3
:10531400808040000040eb008048780031bf2100cd
:105324009140780062212000409421000901070087
:105334000040eb00f3fbb700729aa9003700370076
:105344006121200070322a004e1407000040eb0057
:10535400f3fbb7003100370031bf210091407800e2
:1053640030c6b30080cf5000050036006121200014
:1053740020252a00431407000040eb00f3fbb7008c
:1053840090d38000700060000000e0002300320031
:105394006121200070322a003a1407000040eb001b
:1053a400f3fbb700729aa9001c00370033bf210039
:1053b400934178008380fb0082bf21001241780072
:1053c4004094210000804000024878000340e80037
:1053d400f3fbb70031bf21009140780040942100d5
:1053e400f702070091d380000004200000806000d1
:1053f4000000e000090032000040eb00f3fbb700be
:1054040072daa90005003700f8dbbf000080fb005a
:10541400d01088000040eb00f3fbb700f1c221007c
:10542400914078002edcbf0080cf50003bff3a0053
:105434008700a9000080fa00000006000400fa00ba
:10544400fbdbbf000080fb00100798001e009000eb
:10545400e10f50001c0032001e009000e20f5000cb
:10546400300032001e0090000000e0000100320015
:10547400530037005200200071622a00008e210080
:1054840063f90700000f78001e00e0000a003a00ec
:10549400f2dbbf00e74f500007003a00fbdbbf0020
:1054a4000040e800fbfbb700c1202000008e210073
:1054b400f413070042003700d0622a00c120200004
:1054c400f01307003e0037005200200081632a00d9
:1054d400008e21004ef90700000f78001e00e00046
:1054e4000a003a00f2dbbf00e74f500007003a0021
:1054f400fbdbbf000040e800fbfbb700c12020003d
:10550400008e2100df1307002d003700d0622a002f
:10551400c1202000db1307000040eb00fbfbb700b9
:105524002700370042002000e1632a00008e21009a
:1055340037f90700000f78001e00e00018003a0059
:10554400f2dbbf00e74f500015003a00418e210006
:105554009140780010c4b30080cf500006003a0098
:10556400c1202000008e2100c613070010c0b30024
:10557400fafbb7000a003700418e21009140780001
:1055840020c4b30080cf500005003a00c1202000a1
:10559400008e2100bb13070030c0b300fafbb70034
:1055a400fadbbf000004e00003003a00d0622a00e6
:1055b400c1202000b31307000040eb00fbfbb70041
:1055c4000080fa00000006000400fa00fcdbbf00c3
:1055d4000080fb00100798001e009000e10f5000af
:1055e4001c0032001e009000e20f50003000320018
:1055f4001e0090000000e00001003200530037005c
:105604005200200071622a004094210000f9070032
:10561400000f78001e00e0000a003a00f3dbbf0030
:10562400e74f500007003a00fcdbbf000040e800f1
:10563400fcfbb70061212000409421009113070076
:1056440042003700d0622a00612120008d13070038
:105654003e0037005200200081632a00409421005c
:10566400ebf80700000f78001e00e0000a003a0083
:10567400f3dbbf00e74f500007003a00fcdbbf003c
:105684000040e800fcfbb7006121200040942100a9
:105694007c1307002d003700d0622a00612120000e
:1056a400781307000040eb00fcfbb700270037002d
:1056b40042002000e1632a0040942100d4f807004e
:1056c400000f78001e00e00018003a00f3dbbf0072
:1056d400e74f500015003a00819421009140780072
:1056e40010c4b30080cf500006003a0061212000ae
:1056f400409421006313070020c0b300fafbb700f5
:105704000a003700819421009140780020c4b3003e
:1057140080cf500005003a00612120004094210010
:105724005813070040c0b300fafbb700fadbbf0010
:105734000004e00003003a00d0622a006121200046
:10574400501307000040eb00fcfbb7000080fa0098
:10575400000006001c00fa00300f9800015f98005a
:10576400520f98000040eb00704798000040eb0097
:10577400604798000040eb00504798000040eb0061
:105784004047980036c8bf000004e0000f00320014
:10579400d6c2bf000080fb004400de000004a2006b
:1057a40061406000614060006140600061406000f1
:1057b4004401dd00612d200091407800f0ceb3005b
:1057c40000c0600002407000d6e2b7005e0990009d
:1057d4008e5890003e0890002a01070090d3800064
:1057e40001022000010060000000e00009003a000e
:1057f4003e089000db0007007047980091d38000ba
:1058040000042000008060000000e00003003a0073
:10581400cf00370072baa900d000370072daa900ad
:105824003e089000630040009040780000c2b3003e
:1058340080cf50000e003a000e5890000081fb000b
:105844007e4090000080fb006a00b900e400400044
:1058540000092a0000804000104078000080fb000e
:105864000000400065004000800f510082003d00b0
:105874007e409000ec4f500004003600de0890009b
:105884007e409000e1000700b40037007e409000a5
:105894000080fb006a00b900e400400000092a000f
:1058a40000804000104078000004e00072003200e4
:1058b400de08900040282a00f2120700a7003700f3
:1058c4005e4090000040e800504798005e40900021
:1058d4008080fb004e4090000080fb000080400070
:1058e400800078003e089000008040006400400082
:1058f4009040780000c2b30080cf50000c0032000a
:105904005e4090008080fb004e4090000080fb00d1
:1059140000804000800078003e0890000080400035
:105924006400400010407800ed4f5000e4ff3a005e
:105934005e409000e74f50003d003e005e40900006
:105944000081fb004e4090000080fb008000780046
:105954003e08900000804000e40040006e004700d4
:1059640045f807005e4090008080fb006e00470011
:10597400808040000040eb00804878006e004700c3
:1059840044f80700008fbe0000002800f1ff2f003c
:10599400be0f1000ae8f180005003500f0ff270081
:1059a40001002000be0f1000ae8f18000400340068
:1059b400de089000f02d2a00b212070067003700bd
:1059c4006e4090000080fb001e017800e800470054
:1059d4000000400002b07800ce4090005e4090008d
:1059e40000c040000040e800404798000040eb0041
:1059f400504798000040eb00504798006e409000dc
:105a04000040e800604798004e4090000080fb0092
:105a1400800078003e089000008040006400400050
:105a240010407800ea4f50000500320012003700a1
:105a3400de089000302b2a0092120700470037003e
